{
  "contractName": "StoreCustomers",
  "abi": [
    {
      "inputs": [],
      "stateMutability": "nonpayable",
      "type": "constructor"
    },
    {
      "inputs": [],
      "name": "count",
      "outputs": [
        {
          "internalType": "uint32",
          "name": "",
          "type": "uint32"
        }
      ],
      "stateMutability": "view",
      "type": "function"
    },
    {
      "inputs": [
        {
          "internalType": "uint32",
          "name": "",
          "type": "uint32"
        }
      ],
      "name": "customers",
      "outputs": [
        {
          "internalType": "string",
          "name": "name",
          "type": "string"
        },
        {
          "internalType": "uint8",
          "name": "age",
          "type": "uint8"
        },
        {
          "internalType": "string",
          "name": "email",
          "type": "string"
        }
      ],
      "stateMutability": "view",
      "type": "function"
    },
    {
      "inputs": [
        {
          "internalType": "string",
          "name": "name",
          "type": "string"
        },
        {
          "internalType": "uint8",
          "name": "age",
          "type": "uint8"
        },
        {
          "internalType": "string",
          "name": "email",
          "type": "string"
        }
      ],
      "name": "addCustomer",
      "outputs": [],
      "stateMutability": "nonpayable",
      "type": "function"
    },
    {
      "inputs": [
        {
          "internalType": "uint32",
          "name": "id",
          "type": "uint32"
        }
      ],
      "name": "getCostumer",
      "outputs": [
        {
          "components": [
            {
              "internalType": "string",
              "name": "name",
              "type": "string"
            },
            {
              "internalType": "uint8",
              "name": "age",
              "type": "uint8"
            },
            {
              "internalType": "string",
              "name": "email",
              "type": "string"
            }
          ],
          "internalType": "struct StoreCustomers.Customer",
          "name": "",
          "type": "tuple"
        }
      ],
      "stateMutability": "view",
      "type": "function"
    },
    {
      "inputs": [
        {
          "internalType": "uint32",
          "name": "id",
          "type": "uint32"
        },
        {
          "components": [
            {
              "internalType": "string",
              "name": "name",
              "type": "string"
            },
            {
              "internalType": "uint8",
              "name": "age",
              "type": "uint8"
            },
            {
              "internalType": "string",
              "name": "email",
              "type": "string"
            }
          ],
          "internalType": "struct StoreCustomers.Customer",
          "name": "newCustomer",
          "type": "tuple"
        }
      ],
      "name": "editCustomer",
      "outputs": [],
      "stateMutability": "nonpayable",
      "type": "function"
    },
    {
      "inputs": [
        {
          "internalType": "uint32",
          "name": "id",
          "type": "uint32"
        }
      ],
      "name": "deleteCustomer",
      "outputs": [],
      "stateMutability": "nonpayable",
      "type": "function"
    }
  ],
  "bytecode": "0x60a0604052600180546001600160401b0319169055348015601e575f5ffd5b5033608052608051610e2e61003b5f395f61033d0152610e2e5ff3fe608060405234801561000f575f5ffd5b5060043610610060575f3560e01c806306661abd146100645780639fd3b32614610096578063b39ed843146100ab578063bfb78956146100be578063d39e50e1146100d1578063d4a6d451146100f3575b5f5ffd5b60015461007c90640100000000900463ffffffff1681565b60405163ffffffff90911681526020015b60405180910390f35b6100a96100a4366004610a61565b610113565b005b6100a96100b9366004610b1c565b610332565b6100a96100cc366004610b3c565b61057a565b6100e46100df366004610b1c565b61063e565b60405161008d93929190610bde565b610106610101366004610b1c565b610774565b60405161008d9190610c15565b63ffffffff82165f9081526020819052604080822081516060810190925280548290829061014090610c63565b80601f016020809104026020016040519081016040528092919081815260200182805461016c90610c63565b80156101b75780601f1061018e576101008083540402835291602001916101b7565b820191905f5260205f20905b81548152906001019060200180831161019a57829003601f168201915b5050509183525050600182015460ff1660208201526002820180546040909201916101e190610c63565b80601f016020809104026020016040519081016040528092919081815260200182805461020d90610c63565b80156102585780601f1061022f57610100808354040283529160200191610258565b820191905f5260205f20905b81548152906001019060200180831161023b57829003601f168201915b5050505050815250509050805f0151515f0361027357505050565b8151511580159061029557508051825180516020918201208251919092012014155b1561029f57815181525b5f826020015160ff161180156102c35750816020015160ff16816020015160ff1614155b156102d65760208083015160ff16908201525b63ffffffff83165f908152602081905260409020815182919081906102fb9082610ce7565b50602082015160018201805460ff191660ff9092169190911790556040820151600282019061032a9082610ce7565b505050505050565b336001600160a01b037f000000000000000000000000000000000000000000000000000000000000000016146103a45760405162461bcd60e51b815260206004820152601360248201527221b0b63632b91034b9903737ba1037bbb732b960691b604482015260640160405180910390fd5b63ffffffff81165f908152602081905260408082208151606081019092528054829082906103d190610c63565b80601f01602080910402602001604051908101604052809291908181526020018280546103fd90610c63565b80156104485780601f1061041f57610100808354040283529160200191610448565b820191905f5260205f20905b81548152906001019060200180831161042b57829003601f168201915b5050509183525050600182015460ff16602082015260028201805460409092019161047290610c63565b80601f016020809104026020016040519081016040528092919081815260200182805461049e90610c63565b80156104e95780601f106104c0576101008083540402835291602001916104e9565b820191905f5260205f20905b8154815290600101906020018083116104cc57829003601f168201915b50505091909252505081515191925050156105765763ffffffff82165f9081526020819052604081209061051d828261091f565b60018201805460ff19169055610536600283015f61091f565b505060018054640100000000900463ffffffff1690600461055683610db6565b91906101000a81548163ffffffff021916908363ffffffff160217905550505b5050565b5f6105836108e5565b6040805160608101825286815260ff861660208083019190915281830186905263ffffffff84165f90815290819052919091208151929350909181906105c99082610ce7565b50602082015160018201805460ff191660ff909216919091179055604082015160028201906105f89082610ce7565b505060018054640100000000900463ffffffff169150600461061983610dd4565b91906101000a81548163ffffffff021916908363ffffffff1602179055505050505050565b5f6020819052908152604090208054819061065890610c63565b80601f016020809104026020016040519081016040528092919081815260200182805461068490610c63565b80156106cf5780601f106106a6576101008083540402835291602001916106cf565b820191905f5260205f20905b8154815290600101906020018083116106b257829003601f168201915b5050506001840154600285018054949560ff9092169491935091506106f390610c63565b80601f016020809104026020016040519081016040528092919081815260200182805461071f90610c63565b801561076a5780601f106107415761010080835404028352916020019161076a565b820191905f5260205f20905b81548152906001019060200180831161074d57829003601f168201915b5050505050905083565b60408051606080820183528082525f60208301529181019190915263ffffffff82165f90815260208190526040908190208151606081019092528054829082906107bd90610c63565b80601f01602080910402602001604051908101604052809291908181526020018280546107e990610c63565b80156108345780601f1061080b57610100808354040283529160200191610834565b820191905f5260205f20905b81548152906001019060200180831161081757829003601f168201915b5050509183525050600182015460ff16602082015260028201805460409092019161085e90610c63565b80601f016020809104026020016040519081016040528092919081815260200182805461088a90610c63565b80156108d55780601f106108ac576101008083540402835291602001916108d5565b820191905f5260205f20905b8154815290600101906020018083116108b857829003601f168201915b5050505050815250509050919050565b600180545f919082906108fd9063ffffffff16610dd4565b91906101000a81548163ffffffff021916908363ffffffff1602179055905090565b50805461092b90610c63565b5f825580601f1061093a575050565b601f0160209004905f5260205f20908101906109569190610959565b50565b5b8082111561096d575f815560010161095a565b5090565b803563ffffffff81168114610984575f5ffd5b919050565b634e487b7160e01b5f52604160045260245ffd5b6040516060810167ffffffffffffffff811182821017156109c0576109c0610989565b60405290565b5f82601f8301126109d5575f5ffd5b813567ffffffffffffffff8111156109ef576109ef610989565b604051601f8201601f19908116603f0116810167ffffffffffffffff81118282101715610a1e57610a1e610989565b604052818152838201602001851015610a35575f5ffd5b816020850160208301375f918101602001919091529392505050565b803560ff81168114610984575f5ffd5b5f5f60408385031215610a72575f5ffd5b610a7b83610971565b9150602083013567ffffffffffffffff811115610a96575f5ffd5b830160608186031215610aa7575f5ffd5b610aaf61099d565b813567ffffffffffffffff811115610ac5575f5ffd5b610ad1878285016109c6565b825250610ae060208301610a51565b6020820152604082013567ffffffffffffffff811115610afe575f5ffd5b610b0a878285016109c6565b60408301525080925050509250929050565b5f60208284031215610b2c575f5ffd5b610b3582610971565b9392505050565b5f5f5f60608486031215610b4e575f5ffd5b833567ffffffffffffffff811115610b64575f5ffd5b610b70868287016109c6565b935050610b7f60208501610a51565b9150604084013567ffffffffffffffff811115610b9a575f5ffd5b610ba6868287016109c6565b9150509250925092565b5f81518084528060208401602086015e5f602082860101526020601f19601f83011685010191505092915050565b606081525f610bf06060830186610bb0565b60ff851660208401528281036040840152610c0b8185610bb0565b9695505050505050565b602081525f825160606020840152610c306080840182610bb0565b905060ff60208501511660408401526040840151601f19848303016060850152610c5a8282610bb0565b95945050505050565b600181811c90821680610c7757607f821691505b602082108103610c9557634e487b7160e01b5f52602260045260245ffd5b50919050565b601f821115610ce257805f5260205f20601f840160051c81016020851015610cc05750805b601f840160051c820191505b81811015610cdf575f8155600101610ccc565b50505b505050565b815167ffffffffffffffff811115610d0157610d01610989565b610d1581610d0f8454610c63565b84610c9b565b6020601f821160018114610d47575f8315610d305750848201515b5f19600385901b1c1916600184901b178455610cdf565b5f84815260208120601f198516915b82811015610d765787850151825560209485019460019092019101610d56565b5084821015610d9357868401515f19600387901b60f8161c191681555b50505050600190811b01905550565b634e487b7160e01b5f52601160045260245ffd5b5f63ffffffff821680610dcb57610dcb610da2565b5f190192915050565b5f63ffffffff821663ffffffff8103610def57610def610da2565b6001019291505056fea2646970667358221220c865faa5d844ead20faf923db5a10e1a2acbf94a037b387f84175aa9666d4fe964736f6c634300081c0033",
  "immutableReferences": {
    "10": [
      {
        "length": 32,
        "start": 829
      }
    ]
  },
  "source": "// SPDX-License-Identifier: MIT\npragma solidity ^0.8.17;\n\ncontract StoreCustomers {\n\n  struct Customer {\n    string name;\n    uint8 age;\n    string email;\n  }\n\n  address private immutable owner;\n\n  constructor() {\n    owner = msg.sender;\n  }\n\n  mapping(uint32 => Customer) public customers;\n\n  uint32 private nextId = 0;\n  uint32 public count = 0;\n\n  function getNextId() private returns (uint32) {\n    return ++nextId;\n  }\n\n  function addCustomer(string memory name, uint8 age, string memory email) public {\n    uint32 id = getNextId();\n    customers[id] = Customer(name, age, email);\n    count++;\n  }\n\n  function getCostumer(uint32 id) public view returns (Customer memory) {\n    return customers[id];\n  }\n\n  function compareStrings(string memory a, string memory b) private pure returns(bool) {\n    return keccak256(bytes(a)) == keccak256(bytes(b));\n  }\n\n  function editCustomer(uint32 id, Customer memory newCustomer) public {\n    Customer memory oldCustomer = customers[id];\n\n    if (bytes(oldCustomer.name).length == 0) return;\n\n    if (bytes(newCustomer.name).length > 0 && !compareStrings(oldCustomer.name, newCustomer.name))\n      oldCustomer.name = newCustomer.name;\n\n    if (newCustomer.age > 0 && oldCustomer.age != newCustomer.age)\n      oldCustomer.age = newCustomer.age;\n\n    customers[id] = oldCustomer;\n  }\n\n  function deleteCustomer(uint32 id) public {\n    require(msg.sender == owner, \"Caller is not owner\");\n    Customer memory oldCustomer = customers[id];\n    if (bytes(oldCustomer.name).length > 0) {\n      delete customers[id];\n      count--;\n    }\n  }\n}",
  "sourcePath": "/home/filipanselmo/github-projects/store-customers-sc/contracts/StoreCustomers.sol",
  "compiler": {
    "name": "solc",
    "version": "0.8.28+commit.7893614a.Emscripten.clang"
  },
  "schemaVersion": "3.4.16",
  "updatedAt": "2024-12-30T15:17:11.735Z",
  "devdoc": {
    "kind": "dev",
    "methods": {},
    "version": 1
  },
  "userdoc": {
    "kind": "user",
    "methods": {},
    "version": 1
  }
}